S02200004144435F4D756C74694368616E6E656C5F53657269616C5F54782E737265632D
S11300000C9434000C943E000C943E000C943E007E
S11300100C943E000C943E000C943E000C943E0064
S11300200C943E000C943E000C943E000C943E0054
S11300300C943E000C943E000C943E000C943E0044
S11300400C943E000C943E000C943E000C943E0034
S11300500C943E000C943E000C943E000C943E0024
S11300600C943E000C943E0011241FBECFEFD8E048
S1130070DEBFCDBF0E9408010C945D010C9400000A
S1130080CF93DF9300D0CDB7DEB71A821982AAE7E7
S1130090B0E09C9197609C93ECE7F0E09081907FB6
S11300A090839081906490839081892B80838C913C
S11300B0806C8C9380917A0084FFFCCF80917800CF
S11300C0909179009A838983EAE7F0E080818061E6
S11300D0808389819A810F900F90DF91CF91089549
S11300E0EF92FF920F931F93CF93DF938C019C01A8
S11300F0ADECBCEC0E944E01AC015695479556956B
S1130100479556954795CA01880F991F440F551F67
S1130110440F551F440F551F480F591FC801841B16
S1130120950BAC010E944E01EC01D695C795D6956E
S1130130C795D695C7959E010E944E01FC01F69580
S1130140E795F695E795F695E795CF01880F991F02
S1130150EE0FFF1FEE0FFF1FEE0FFF1FE80FF91F3B
S1130160CE018E1B9F0BFC01980136952795369581
S11301702795ABE7B4E10E944E017C01F694E79425
S11301809701ADECBCEC0E944E01EC01D695C795ED
S1130190D695C795D695C795CE01880F991FCC0FD4
S11301A0DD1FCC0FDD1FCC0FDD1FC80FD91FC7010A
S11301B08C1B9D0BEC019801369527953695279558
S11301C036952795A5ECB0E20E944E019295829552
S11301D08F7089279F708927D0E3D40F10E31E0FF7
S11301E0C05D805D90E00E943E018C2F90E00E94F3
S11301F03E01812F90E00E943E018D2F90E00E94ED
S11302003E01DF91CF911F910F91FF90EF900895E0
S113021087E490E00E94360180E00E9440000E9442
S113022070008DE20E943E0181E00E9440000E9425
S113023070008DE20E943E0182E00E9440000E9414
S113024070008DE20E943E0183E00E9440000E9403
S113025070008AE00E943E012FEF8FEB91E2215063
S113026080409040E1F700C00000D6CF9093C500D5
S11302708093C40086E08093C2000895E1ECF0E02E
S11302809081986090839091C00095FFFCCF8093FB
S1130290C6008091C00085FFFCCF0895A29FB001E5
S11302A0B39FC001A39F700D811D1124911DB29FA6
S11102B0700D811D1124911D0895F894FFCF47
S9030000FC
